:1000000014C047C12CC12CC02BC02AC0EEC028C0D0
:1000100027C026C025C024C023C022C021C020C0C4
:100020001FC01EC01DC01CC01BC011241FBECFE5B9
:10003000D1E0DEBFCDBF10E0A0E6B0E0E2E4F3E047
:1000400002C005900D92A236B107D9F720E0A2E6D2
:10005000B0E001C01D92AE36B207E1F73DD16FC1ED
:10006000CFCF80916600909167008230910509F4AE
:100070004AC02CF4009769F0019739F10895843053
:10008000910509F473C00CF45CC0059709F48FC0A6
:100090000895C39A88B3806A88BBC19882E692E0CB
:1000A000909361008093600080916A0090916B0052
:1000B0008130910509F098C020916400309165006D
:1000C000121613060CF46EC08FC08EE190E0909370
:1000D00061008093600010926B0010926A00809122
:1000E0006C0090916D00892B21F098B388E08927EE
:1000F00088BB8091640090916500069709F074C0F8
:1001000082E090E04FC08DE390E090936100809397
:100110006000C398C19A8091640090916500019736
:1001200009F062C0109263001092620010926500A4
:100130001092640083E090E09093690080936800DF
:10014000089582E692E0909361008093600088B306
:10015000806588BBC598C7988091640090916500C0
:10016000019709F041C084E090E01CC08EE190E06E
:10017000909361008093600080916C0090916D007D
:10018000892B41F098B380E1892788BB98B380E43C
:10019000892788BB8091640090916500069721F5BE
:1001A00085E090E0909369008093680015C086E434
:1001B00090E09093610080936000C498C69888B3E3
:1001C000806A88BB8091640090916500019761F41A
:1001D0001092690010926800109263001092620001
:1001E000109265001092640008951F920F920FB64E
:1001F0000F9211242F933F938F939F9380916200CE
:100200009091630020916000309161008217930704
:10021000A1F481E090E090936D0080936C00809158
:10022000640090916500019690936500809364004E
:10023000109263001092620009C0019690936300CF
:100240008093620010926D0010926C009F918F91CC
:100250003F912F910F900FBE0F901F9018951F92F6
:100260000F920FB60F9211248F939F938091660087
:1002700090916700892B31F481E090E090936B00BE
:1002800080936A009F918F910F900FBE0F901F90E7
:1002900018951F920F920FB60F9211242F933F9330
:1002A0004F935F936F937F938F939F93AF93BF937E
:1002B000EF93FF93D4DFFF91EF91BF91AF919F91A7
:1002C0008F917F916F915F914F913F912F910F90FF
:1002D0000FBE0F901F9018958BEF87BB10BE13BEFB
:1002E00083B7856083BF789412BE89B7826089BF67
:1002F0008BB7806C8BBF85B78E6085BF18BA1092A4
:100300006B0010926A0010926D0010926C001092B7
:10031000650010926400109269001092680082EDEE
:1003200090E09093610080936000809168009091CC
:100330006900909367008093660093DEF6CFF8948F
:02034000FFCFED
:020342003D007C
:00000001FF
